:040000000C942F002D
:100004000C9400000C9400000C9400000C9400006C
:100014000C9400000C9400000C9400000C9400005C
:100024000C9400000C9400000C9400000C9400004C
:100034000C9400000C9400000C9400000C9400003C
:100044000C9400000C9400000C9400000C9400002C
:1000540080C00200600254000000F894EE27ECBB5C
:10006400F1E0FBBFEBBFE5BFF8E1F1BDE1BD8DE021
:10007400A2E0BB27ED938A95E9F780E098E0A0E63B
:10008400ED930197E9F7E6E5F0E085919591009706
:1000940061F0A591B59105901590BF01F00105900F
:1000A4000D920197E1F7FB01F0CFEFE5EDBFE8E03A
:1000B400EEBFC0E6D2E00C948300AA93E881E0305E
:1000C40011F4C39801C0C39AB5C09698979A9298B0
:1000D400939A0895969A9798929A93980895AA93C2
:1000E4009398929897989698E881E03049F0F2DFD7
:1000F400EFEFEABDE8BDA4E69FD0E0E0EABDE8BDCD
:1001040099C0E0E0EBBBEABBEFEFE8BBE7BBE0E0A4
:10011400E5BBE4BBE2BBECEFE1BBEAE4E3BFE0E058
:10012400E2BFEFE0ECBFE1EAEFBDEBE0EEBDE0E003
:10013400EDBDECBDE7BDE6BDEBBDEABDE9BDE8BD87
:10014400E2BDE5BDE4BDE3BDE5BFE4BFE9BFEAB997
:10015400E0E8E8B9E0E0E0BFE0E6E7B9E7E8E6B9FF
:10016400E0E0EDB9E6BFA0E13ED02FD0AEDFEFEF87
:10017400EABDE8BDA8EBBBE00E942801A1E0AFDF27
:10018400A1E09BDFFFCFFFCFAA93E8B3EF70AE2FC0
:10019400E881E07FEA2BE8BB8BE08A95F1F7C29A0D
:1001A4008BE18A95F1F7C2988BE18A95F1F742C009
:1001B400AA93A881E9DFE881E295E883A881E4DFD6
:1001C40088EC90E00197F1F735C0A2E0F1DFA3E0FD
:1001D40033D0ACE0EDDFA1E0EBDFA3E02DD0E0E035
:1001E4004E2E5E2E0895AA93E7B3E06FE7BBBA9A4A
:1001F400B89AB99AC298C098C1987880E881E058B2
:10020400E0936202E881E054E0936302A4E114D035
:1002140016D015D014D0A0E2B7DF80E991E00197A1
:10022400F1F7A8E2C5DFA4E0C3DFA5E8C1DFA6E0DB
:10023400BFDFCBDF21960895B0E00C942801A0E342
:10024400A3DF80E991E00197F1F70895109639F062
:1002540080EA9FE00197F1F7A8951197C9F70895EF
:00000001FF
